:0400000081EF00F09C
:100008000E0B0E0B0E0B0E0B40000E0B4000C50A1C
:10001800D30A0E0B0E0B0E0B0E0B0E0B0E0B0E0B4C
:100028000E0B4000400040000E0B0E0B0E0B0E0B8B
:100038000E0B0E0B0E0B0E0B0E0B0E0B0E0B2A0AD5
:100048000E0B0E0B0E0B0E0B400040000E0B0E0B92
:100058000E0B0E0B0E0B40000E0B0E0B0E0B0E0BA9
:10006800D90A0E0B0E0B0E0B0E0B0E0B0E0B0E0BF6
:100078000E0B0E0B0E0B0E0B40000E0B0E0B0E0B89
:100088000E0B0E0B0E0B0E0B0E0B0E0B0E0B0E0BA0
:100098000E0B0E0B0E0B0E0B40000E0B400040001B
:1000A800DF0A0E0B0E0B0E0B0E0B0E0B0E0B0E0BB0
:1000B8000E0B0E0B0E0B0E0B0E0B0E0B0E0B0E0B70
:1000C8000E0B0E0B0E0B0E0B0E0B0E0B0E0B0E0B60
:1000D8000E0B0E0B0E0B0E0B0E0B0E0B0E0B0E0B50
:1000E80040000E0B0E0B0E0B40004000400040007D
:0E00F8000E0B0E0B0E0B0E0BFF0063EF15F040
:1026000000062A000000000000000000000000009A
:10261000000000000000000000000000322B00005D
:03262000000000B7
:10262400BE6ABF6AC06AC16AC26AC36A0401026B35
:102634000A6B126B1A6B226B2A6BEF0EC66ED70EE7
:10264400C76EFE0EC86EC96A0F0ECA6ECB68060E40
:10265400006FD00E086FFE0E106F186B070E206F00
:102664002869016B096B116B196B216B296B036969
:102674000B6913691B69070E236F2B6904690C69C5
:1026840014691C690F0E246F2C690201896B886B15
:10269400876B866B090E3E6F0A0E3F6FE00E0401D6
:1026A400056FE00E066F076B0D6B0E6B0F6B156BF2
:1026B400166B176B256B266B276B360E246E2C0E50
:1026C400256E000E266EF6EC15F0340E246E2C0EDC
:1026D400256E000E266EEFEC15F0320E246E2C0ED5
:1026E400256E000E266EE8EC15F09E8E12001C6E10
:1026F4009AEF13F0C180C5EF13F0C184C5EF13F056
:10270400C080C5EF13F0BF8AC5EF13F0C186C5EFD3
:1027140013F0C18AC5EF13F0C188C5EF13F0C1826D
:10272400C5EF13F0BE88C5EF13F0BF86C5EF13F0F5
:102734001C50000AD8B47CEF13F0010AD8B47FEF20
:1027440013F0030AD8B482EF13F0010AD8B485EF6A
:1027540013F0070AD8B488EF13F0010AD8B48BEF4A
:1027640013F0030AD8B48EEF13F0010AD8B491EF32
:1027740013F00F0AD8B494EF13F0010AD8B497EF0A
:1027840013F0C5EF13F012001C6EE7EF13F0C190C5
:1027940012EF14F0C19412EF14F0C09012EF14F081
:1027A400BF9A12EF14F0C19612EF14F0C19A12EF0F
:1027B40014F0C19812EF14F0C19212EF14F0BE9805
:1027C40012EF14F0BF9612EF14F01C50000AD8B4A4
:1027D400C9EF13F0010AD8B4CCEF13F0030AD8B44C
:1027E400CFEF13F0010AD8B4D2EF13F0070AD8B42C
:1027F400D5EF13F0010AD8B4D8EF13F0030AD8B414
:10280400DBEF13F0010AD8B4DEEF13F00F0AD8B4EB
:10281400E1EF13F0010AD8B4E4EF13F012EF14F06F
:102824001200D68A000ED6BE010E276ED69E550E15
:102834000401596FAA0E596F59915F6B5E6B080EB4
:102844005D6F550E596FAA0E596F598127B002D08A
:10285400D69E01D0D68E03016381658F6881629F05
:10286400AF90D6803A0E246E2C0E256E000E266E86
:102874000BEC16F09F80B490D6823C0E246E2C0E86
:10288400256E000E266E04EC16F0A480B890D68453
:102894003E0E246E2C0E256E000E266EFDEC15F0F9
:0228A400120020
:1028A800FAC41FF5FBC420F529500301196F28C588
:1028B80018F3015002100310D8B465EF14F067EF55
:1028C80014F074EF14F002D874EF14F00500FA6EE7
:1028D8000150FD6E0250FE6E0350FF6EFA5012005A
:1028E800B19E20C5FBF41FC5FAF41100040107AB23
:1028F80080EF14F082EF14F084EF14F0E9EC14F098
:10290800040107AD8AEF14F08CEF14F08EEF14F089
:10291800CFEC14F0040107AF94EF14F096EF14F025
:1029280098EF14F0B5EC14F012002A50C6EC13F02E
:102938002A2A2A50800A760FD8A0A5EF14F0A7EF0C
:1029480014F0B1EF14F0000E1C6E000E1D6E000E98
:102958001E6E12EC16F0B4EF14F02A5079EC13F056
:1029680012000D500E100F10D8B4BDEF14F0BFEFC9
:1029780014F0CCEF14F002D8CCEF14F00500FA6E86
:102988000D50FD6E0E50FE6E0F50FF6EFA50120085
:102998000401079F1200105011101210D8B4D7EF7D
:1029A80014F0D9EF14F0E6EF14F002D8E6EF14F0C3
:1029B8000500FA6E1050FD6E1150FE6E1250FF6E3B
:1029C800FA5012000401079D12001350141015103C
:1029D800D8B4F1EF14F0F3EF14F000EF15F002D8CB
:1029E80000EF15F00500FA6E1350FD6E1450FE6EE0
:1029F8001550FF6EFA5012000401079B1200480E92
:102A08000301196FE50E186F7B0E1B6F1951246EA9
:102A18001851286E24C529F5400E016E2C0E026E41
:102A2800000E036EB19EA18E900E1A6F12000A500E
:102A38000B100C10D8B423EF15F025EF15F032EF7A
:102A480015F002D832EF15F00500FA6E0A50FD6E47
:102A58000B50FE6E0C50FF6EFA5012001200075019
:102A680008100910D8B43BEF15F03DEF15F04AEF08
:102A780015F002D84AEF15F00500FA6E0750FD6E02
:102A88000850FE6E0950FF6EFA50120012000450F2
:102A980005100610D8B453EF15F055EF15F062EF96
:102AA80015F002D862EF15F00500FA6E0450FD6EBD
:102AB8000550FE6E0650FF6EFA5012001200420ECC
:102AC800F66E2C0EF76E000EF86E0900F5C42AF5A6
:102AD800296A286A0401080E5D6F000E5E6F000EF9
:102AE8005F6F000178EF15F0DFEC15F0CAEC15F018
:102AF800320E246E290E256E000E266E99EC15F006
:102B0800D68ED68C86EF15F081EF00F0D8C421F56B
:102B1800FAC422F5FBC423F57AEC14F023C5FBF4C0
:102B280022C5FAF421C5D8F41100D7AE9EEF15F0EE
:102B380012EF16F024C501F525C502F526C503F5E3
:022B4800120079
:102B4C00FAC416F5FBC417F5AF901BEC15F017C5BE
:102B5C00FBF416C5FAF41100FAC418F5FBC419F508
:102B6C00B49033EC15F019C5FBF418C5FAF4110048
:102B7C00FAC41AF5FBC41BF5B8904BEC15F01BC549
:102B8C00FBF41AC5FAF41100C190C194C090BF9A1D
:102B9C00C196C19AC198C192BE98BF961200600EA0
:102BAC000001AD6FAF6BB36B080EB16FB06BAC6B5C
:102BBC001200D5EC15F012EC13F003EC15F013EC3D
:102BCC0014F0120024C50DF525C50EF526C50FF51C
:102BDC00120024C510F525C511F526C512F51200F5
:102BEC0024C513F525C514F526C515F5120024C505
:102BFC0004F525C505F526C506F5120024C507F50F
:102C0C0025C508F526C509F5120024C50AF525C504
:102C1C000BF526C50CF512001CC501F51DC502F5FA
:102C2C001EC503F512001200120012001100120052
:072C3C00120012001200FF5C
:020000040030CA
:080000008FFFFFFF9FFFFFFFD0
:01000900FFF7
:00000001FF
