:040000000DEF00F010
:0400080087EF14F07A
:06001800FF00B7EF14F039
:102600000040290000000000000000000000000061
:10261000000000000000000000000000B4290000DD
:03262000000000B7
:10262400136E36EF13F0C18065EF13F0C18465EFCC
:1026340013F0BE8265EF13F0C08065EF13F0BF8A1C
:1026440065EF13F0C18665EF13F0C18A65EF13F0EF
:10265400C18865EF13F0C18265EF13F0BE8865EFA2
:1026640013F0BF8665EF13F01350000AD8B415EFCA
:1026740013F0010AD8B418EF13F0030AD8B41BEF0F
:1026840013F0010AD8B41EEF13F0070AD8B421EFEF
:1026940013F0010AD8B424EF13F0030AD8B427EFD7
:1026A40013F0010AD8B42AEF13F00F0AD8B42DEFAF
:1026B40013F0010AD8B430EF13F0030AD8B433EF9F
:1026C40013F065EF13F01200136E8AEF13F0C1904C
:1026D400B9EF13F0C194B9EF13F0BE92B9EF13F050
:1026E400C090B9EF13F0BF9AB9EF13F0C196B9EFE8
:1026F40013F0C19AB9EF13F0C198B9EF13F0C19276
:10270400B9EF13F0BE98B9EF13F0BF96B9EF13F019
:102714001350000AD8B469EF13F0010AD8B46CEF6F
:1027240013F0030AD8B46FEF13F0010AD8B472EFB0
:1027340013F0070AD8B475EF13F0010AD8B478EF90
:1027440013F0030AD8B47BEF13F0010AD8B47EEF78
:1027540013F00F0AD8B481EF13F0010AD8B484EF50
:1027640013F0030AD8B487EF13F0B9EF13F0120093
:10277400BE6ABF6AC06AC16AC26AC36A0401026BE4
:102784000A6B126B1A6B226B2A6BED0EC66ED70E98
:10279400C76EFE0EC86EC96A0F0ECA6ECB68040EF1
:1027A400006FD00E086FFE0E106F186B070E206FAF
:1027B4002869016B096B116B196B216B296B036918
:1027C4000B6913691B69070E236F2B6904690C6974
:1027D40014691C690F0E246F2C690201896B886BC4
:1027E400876B866B0401056B066B076B0D6B0E6BB9
:1027F4000F6B156B166B176B256B266B276B120013
:102804000F501010D8B409EF14F00BEF14F027EFA9
:1028140014F00F06D8A010060F501010D8A415EF0E
:1028240014F017EF14F02EEF14F0125066EC13F0BE
:10283400122A0A0E126421EF14F023EF14F02EEF83
:1028440014F0010E116E2EEF14F0125012EC13F06E
:10285400030E106EE80E0F6E1200D69AAF90D6805B
:10286400000E166E000E176E000E186EEFEC14F0CC
:10287400B490D682000E166E000E176E000E186EFF
:10288400E8EC14F0B890D684000E166E000E176EA5
:10289400000E186EE1EC14F012000E500301196FD3
:1028A4000DC518F3015002100310D8B45CEF14F0F6
:1028B4005EEF14F06BEF14F002D86BEF14F0050028
:1028C400FA6E0150FD6E0250FE6E0350FF6EFA5018
:1028D4001200B19E1200D1EC14F0C190C194BE92CA
:1028E400C090BF9AC196C19AC198C192BE98BF9632
:1028F400040E166E280E176E000E186EDAEC14F025
:10290400D68E83EF14F00DEF00F0FAC414F5FBC477
:1029140015F5A1AE90EF14F092EF14F09BEF14F0C4
:10292400B1AE97EF14F099EF14F09BEF14F04FEC65
:1029340014F015C5FBF414C5FAF41100060E0301D6
:10294400196F186B700E1B6F1951166E18510D6E9E
:1029540016C50EF5EC0E016E290E026E000E036E06
:10296400B19EA18E900E1A6F1200126A116A106A3B
:102974000F6A0E6A0D6A0401080E5D6F000E5E6F29
:10298400000E5F6F00016DEF14F0600E0001AD6F7B
:10299400AF6BB36B080EB16FB06BAC6B1200C7ECCE
:1029A40014F0BAEC13F0A0EC14F02FEC14F01200B5
:1029B40016C501F517C502F518C503F5120016C5AD
:1029C40004F517C505F518C506F5120016C507F573
:1029D40017C508F518C509F5120016C50AF517C577
:0A29E4000BF518C50CF512001200E7
:020000040030CA
:080000008FFFF7FF9FFFFFFFD8
:01000900FFF7
:00000001FF
