:0400000081EF00F09C
:10000800120B120B120B120B4000120B4000BD0A10
:10001800D10A120B120B120B120B120B120B120B32
:10002800120B400040004000120B120B120B120B77
:10003800120B120B120B120B120B120B120B2A0AB9
:10004800120B120B120B120B40004000120B120B7A
:10005800120B120B120B4000120B120B120B120B8D
:10006800D70A120B120B120B120B120B120B120BDC
:10007800120B120B120B120B4000120B120B120B6D
:10008800120B120B120B120B120B120B120B120B80
:10009800120B120B120B120B4000120B4000400007
:1000A800DD0A120B120B120B120B120B120B120B96
:1000B800120B120B120B120B120B120B120B120B50
:1000C800120B120B120B120B120B120B120B120B40
:1000D800120B120B120B120B120B120B120B120B30
:1000E8004000120B120B120B400040004000400071
:0E00F800120B120B120B120BFF0064EF15F02F
:1026000000082A0000000000000000000000000098
:102610000000000000000000000000002A2B000065
:03262000000000B7
:10262400BE6ABF6AC06AC16AC26AC36A0401026B35
:102634000A6B126B1A6B226B2A6BEF0EC66ED70EE7
:10264400C76EFE0EC86EC96A0F0ECA6ECB68060E40
:10265400006FD00E086FFE0E106F186B070E206F00
:102664002869016B096B116B196B216B296B036969
:102674000B6913691B69070E236F2B6904690C69C5
:1026840014691C690F0E246F2C690201896B886B15
:10269400876B866B090E3E6F0A0E3F6FE00E0401D6
:1026A400056FE00E066F076B0D6B0E6B0F6B156BF2
:1026B400166B176B256B266B276B440E246E2C0E42
:1026C400256E000E266EFDEC15F0420E246E2C0EC7
:1026D400256E000E266EF6EC15F0400E246E2C0EC0
:1026E400256E000E266EEFEC15F09E8E12001C6E09
:1026F4009AEF13F0C180C5EF13F0C184C5EF13F056
:10270400C080C5EF13F0BF8AC5EF13F0C186C5EFD3
:1027140013F0C18AC5EF13F0C188C5EF13F0C1826D
:10272400C5EF13F0BE88C5EF13F0BF86C5EF13F0F5
:102734001C50000AD8B47CEF13F0010AD8B47FEF20
:1027440013F0030AD8B482EF13F0010AD8B485EF6A
:1027540013F0070AD8B488EF13F0010AD8B48BEF4A
:1027640013F0030AD8B48EEF13F0010AD8B491EF32
:1027740013F00F0AD8B494EF13F0010AD8B497EF0A
:1027840013F0C5EF13F012001C6EE7EF13F0C190C5
:1027940012EF14F0C19412EF14F0C09012EF14F081
:1027A400BF9A12EF14F0C19612EF14F0C19A12EF0F
:1027B40014F0C19812EF14F0C19212EF14F0BE9805
:1027C40012EF14F0BF9612EF14F01C50000AD8B4A4
:1027D400C9EF13F0010AD8B4CCEF13F0030AD8B44C
:1027E400CFEF13F0010AD8B4D2EF13F0070AD8B42C
:1027F400D5EF13F0010AD8B4D8EF13F0030AD8B414
:10280400DBEF13F0010AD8B4DEEF13F00F0AD8B4EB
:10281400E1EF13F0010AD8B4E4EF13F012EF14F06F
:102824001200D68A000ED6BE010E276ED69E550E15
:102834000401596FAA0E596F59915F6B5E6B080EB4
:102844005D6F550E596FAA0E596F598127B002D08A
:10285400D69E01D0D68E03016381658F6881629F05
:10286400AF90D6804A0E246E2C0E256E000E266E76
:1028740012EC16F09F80B490D6824C0E246E2C0E6F
:10288400256E000E266E0BEC16F0A480B890D6844C
:102894004E0E246E2C0E256E000E266E04EC16F0E1
:0228A400120020
:1028A800FAC41FF5FBC420F529500301196F28C588
:1028B80018F3015002100310D8B465EF14F067EF55
:1028C80014F074EF14F002D874EF14F00500FA6EE7
:1028D8000150FD6E0250FE6E0350FF6EFA5012005A
:1028E800B19E20C5FBF41FC5FAF41100040107AB23
:1028F80080EF14F082EF14F084EF14F0EAEC14F097
:10290800040107AD8AEF14F08CEF14F08EEF14F089
:10291800D0EC14F0040107AF94EF14F096EF14F024
:1029280098EF14F0B6EC14F012002A50C6EC13F02D
:102938002A2A2A50800A760FD8A0A5EF14F0A7EF0C
:1029480014F0B2EF14F0000E1C6E000E1D6E000E97
:102958001E6E19EC16F0BF8AB5EF14F02A5079EC08
:1029680013F012000D500E100F10D8B4BEEF14F073
:10297800C0EF14F0CDEF14F002D8CDEF14F005003D
:10298800FA6E0D50FD6E0E50FE6E0F50FF6EFA502F
:1029980012000401079F1200105011101210D8B431
:1029A800D8EF14F0DAEF14F0E7EF14F002D8E7EFFD
:1029B80014F00500FA6E1050FD6E1150FE6E1250A4
:1029C800FF6EFA5012000401079D120013501410F4
:1029D8001510D8B4F2EF14F0F4EF14F001EF15F07D
:1029E80002D801EF15F00500FA6E1350FD6E145071
:1029F800FE6E1550FF6EFA5012000401079B12007C
:102A0800480E0301196FE50E186F7B0E1B6F1951E5
:102A1800246E1851286E24C529F5500E016E2C0E0F
:102A2800026E000E036EB19EA18E900E1A6F1200F8
:102A38000A500B100C10D8B424EF15F026EF15F03F
:102A480033EF15F002D833EF15F00500FA6E0A508F
:102A5800FD6E0B50FE6E0C50FF6EFA501200120005
:102A6800075008100910D8B43CEF15F03EEF15F0E8
:102A78004BEF15F002D84BEF15F00500FA6E075032
:102A8800FD6E0850FE6E0950FF6EFA5012001200DB
:102A9800045005100610D8B454EF15F056EF15F091
:102AA80063EF15F002D863EF15F00500FA6E0450D5
:102AB800FD6E0550FE6E0650FF6EFA5012001200B1
:102AC800520EF66E2C0EF76E000EF86E0900F5C465
:102AD8002AF5296A286A0401080E5D6F000E5E6FE8
:0A2AE800000E5F6F000189EF15F08A
:102AF400D8C421F5FAC422F5FBC423F57AEC14F00A
:102B040023C5FBF422C5FAF421C5D8F41100E6EC80
:102B140015F0D1EC15F0C6EC15F0D68ED68C91EFED
:102B240015F081EF00F0D7AE9AEF15F019EF16F01B
:0E2B340024C501F525C502F526C503F51200DE
:102B4400FAC416F5FBC417F5AF901CEC15F017C5C5
:102B5400FBF416C5FAF41100FAC418F5FBC419F510
:102B6400B49034EC15F019C5FBF418C5FAF411004F
:102B7400FAC41AF5FBC41BF5B8904CEC15F01BC550
:102B8400FBF41AC5FAF4110004EC15F0320E246EAD
:102B9400290E256E000E266E95EC15F01200C190DC
:102BA400C194C090BF9AC196C19AC198C192BE986F
:102BB400BF961200600E0001AD6FAF6BB36B080ED1
:102BC400B16FB06BAC6B1200DCEC15F012EC13F0CF
:102BD40004EC15F013EC14F0120024C50DF525C512
:102BE4000EF526C50FF5120024C510F525C511F5FF
:102BF40026C512F5120024C513F525C514F526C5FE
:102C040015F5120024C504F525C505F526C506F5F8
:102C1400120024C507F525C508F526C509F51200D7
:102C240024C50AF525C50BF526C50CF512001CC5EF
:102C340001F51DC502F51EC503F5120012001200B0
:022C440012007C
:0B2C480011001200120012001200FF29
:020000040030CA
:080000008FFFFFFF9FFFFFFFD0
:01000900FFF7
:00000001FF
