:0400000081EF00F09C
:10000800010D010D010D010D4000010D40008E0B89
:10001800A80C010D010D010D010D010D010D010DC2
:10002800010D400040004000010D010D010D010DC2
:10003800010D010D010D010D010D010D010D6A0BE1
:10004800010D010D010D010D40004000010D010DD4
:10005800010D010D010D4000010D010D010D010DF6
:10006800B40C010D010D010D010D010D010D010D66
:10007800010D010D010D010D4000010D010D010DD6
:10008800010D010D010D010D010D010D010D010DF8
:10009800010D010D010D010D4000010D4000400052
:1000A800C00C010D010D010D010D010D010D010D1A
:1000B800010D010D010D010D010D010D010D010DC8
:1000C800010D010D010D010D010D010D010D010DB8
:1000D800010D010D010D010D010D010D010D010DA8
:1000E8004000010D010D010D40004000400040009E
:0E00F800010D010D010D010DFF00FAEF16F0D4
:10260000009A2C000000000000004E330000000083
:10261000EE2E00000000000000000000000000009E
:1026200000000000000000000000000000000000AA
:10263000000000000000000000000000001A31004F
:10264000F63000D23000000000262F00000000000D
:10265000000000000000000000000000000000007A
:10266000000000007032000000004572726F72209E
:102670007768696C6520696E6974696174696E67F1
:1026800020736166657479200A0053616665747908
:10269000204D6F6465204368616E6765643A203140
:1026A00000536166657479204D6F646520436861ED
:1026B0006E6765643A204100536166657479204D08
:1026C0006F6465204368616E6765643A205300005B
:1026D000BE6ABF6AC06AC16AC26AC36A0401026B89
:1026E0000A6B126B1A6B226B2A6BC668D70EC76E09
:1026F000FE0EC86EC96A0F0ECA6EFD0ECB6E060EB8
:10270000006FD00E086FFE0E106F186B070E206F53
:10271000FC0E286F016B096B116B196B216B296B18
:1027200003690B6913691B69070E236F2B69046921
:102730000C6914691C690F0E246F2C690201896BE6
:10274000886B876B866B280E726F090E3E6F0A0EC0
:102750003F6F200E2A6F700E0401056F066B076B2A
:102760000D6B0E6B0F6B156B166B176B256B266B5A
:10277000276BF60E05016E6F330E6F6F000E706FD4
:10278000BDEC19F0F00E05016E6F330E6F6F000E89
:10279000706FB6EC19F0EA0E05016E6F330E6F6FB5
:1027A000000E706FAFEC19F09E8E12000501725191
:1027B0007311D8B4DEEF13F0E0EF13F0E9EF13F08C
:1027C00072517311D8A4E7EF13F0E9EF13F0EEEFB5
:1027D00013F07051C2EC18F03BEF14F020EE09F04A
:1027E0007251D9267351DA22DE50DE10D8B4FBEFD5
:1027F00013F0FDEF13F018EF14F020EE09F0725112
:10280000D9267351DA2210EE02F07251E12673518B
:10281000E222DE50E65CE650800A786FDE50800AE5
:102820007859D8B016EF14F018EF14F03BEF14F00D
:1028300020EE02F07251D9267351DA22DEC474F50B
:10284000DDC475F572C5D9F473C5DAF4DEC476F566
:10285000DDC477F574517625D96E75517721DA6E1E
:1028600070C5DFF420EE02F07251D9267351DA22DE
:10287000DE2A000EDD22120016501710D8B443EFE6
:1028800014F045EF14F04EEF14F016501710D8A4C2
:102890004CEF14F04EEF14F053EF14F01450E3EC3F
:1028A00018F0A0EF14F020EE09F01650D9261750BA
:1028B000DA22DE50DE10D8B460EF14F062EF14F0CC
:1028C0007DEF14F020EE09F01650D9261750DA22C9
:1028D00010EE02F01650E1261750E222DE50E65CC0
:1028E000E650800A1C6EDE50800A1C58D8B07BEF80
:1028F00014F07DEF14F0A0EF14F020EE02F016506B
:10290000D9261750DA22DEC418F5DDC419F516C52C
:10291000D9F417C5DAF4DEC41AF5DDC41BF5185076
:102920001A24D96E19501B20DA6E14C5DFF420EE7C
:1029300002F01650D9261750DA22DE2A000EDD22C8
:102940001200CEAAA6EF14F0A8EF14F0BAEF14F01C
:10295000CEBCADEF14F0AFEF14F0BAEF14F0CEB878
:10296000B4EF14F0B6EF14F0BAEF14F09FEC19F0D6
:10297000F3EF14F0CEBABFEF14F0C1EF14F0D3EFC1
:1029800014F0CEACC6EF14F0C8EF14F0D3EF14F08F
:10299000CEB8CDEF14F0CFEF14F0D3EF14F0B1ECCC
:1029A00018F0F3EF14F0CEBAD8EF14F0DAEF14F019
:1029B000ECEF14F0CEBCDFEF14F0E1EF14F0ECEF2D
:1029C00014F0CEA8E6EF14F0E8EF14F0ECEF14F0FA
:1029D000D3EC18F0F3EF14F0030E4D6E6A0E050100
:1029E000856F57EC18F012000D6E15EF15F0C190C1
:1029F00040EF15F0C19440EF15F0C09040EF15F096
:102A0000BF9A40EF15F0C19640EF15F0C19A40EF24
:102A100015F0C19840EF15F0C19240EF15F0BE9847
:102A200040EF15F0BF9640EF15F00D50000AD8B4F6
:102A3000F7EF14F0010AD8B4FAEF14F0030AD8B48F
:102A4000FDEF14F0010AD8B400EF15F0070AD8B46E
:102A500003EF15F0010AD8B406EF15F0030AD8B455
:102A600009EF15F0010AD8B40CEF15F00F0AD8B42D
:102A70000FEF15F0010AD8B412EF15F040EF15F082
:102A800012000D6E5FEF15F0C1808AEF15F0C18462
:102A90008AEF15F0C0808AEF15F0BF8A8AEF15F033
:102AA000C1868AEF15F0C18A8AEF15F0C1888AEFD6
:102AB00015F0C1828AEF15F0BF868AEF15F00D5030
:102AC000000AD8B444EF15F0010AD8B447EF15F066
:102AD000030AD8B44AEF15F0010AD8B44DEF15F047
:102AE000070AD8B450EF15F0010AD8B453EF15F027
:102AF000030AD8B456EF15F0010AD8B459EF15F00F
:102B00000F0AD8B48AEF15F0010AD8B45CEF15F0BB
:102B10008AEF15F01200D68A000ED6BE010E05010E
:102B2000716FD69E550E0401596FAA0E596F5991B7
:102B30005F6B5E6B080E5D6F550E596FAA0E596F75
:102B40005981050171B102D0D69E01D0D68E030104
:102B50006381658F6881629FAF90D680060E050104
:102B60006E6F340E6F6F000E706FD2EC19F09F8095
:102B7000B490D682080E05016E6F340E6F6F000E92
:102B8000706FCBEC19F0A480B890D6840A0E0501C2
:102B90006E6F340E6F6F000E706FC4EC19F0120080
:102BA0007BC5D9F47CC5DAF4DFC4F6F4260EF76EE3
:102BB000000EF86E0800F550250AD8A4E2EF15F0D3
:102BC000E4EF15F0F7EF15F07BC5D9F47CC5DAF426
:102BD000DF2A3B6A000E3A6E3AC542F53C683D6812
:102BE0007BC5D9F47CC5DAF4DF2A0EEF16F07BC57D
:102BF000D9F47CC5DAF4DFC4F6F4260EF76E000EC5
:102C0000F86E0800F5500501706F716B79C572F5AB
:102C10007AC573F5D6EC13F0F0EF15F012001FC56E
:102C2000D9F420C5DAF4DFC4F6F4260EF76E000EF0
:102C3000F86E0800F550250AD8A421EF16F023EF0E
:102C400016F036EF16F01FC5D9F420C5DAF4DF2AE6
:102C50003B6A000E3A6E3AC542F53C683D681FC5B6
:102C6000D9F420C5DAF4DF2A4CEF16F01FC5D9F4E9
:102C700020C5DAF4DFC4F6F4260EF76E000EF86E07
:102C80000800F550146E156A1DC516F51EC517F51A
:102C90003CEC14F02FEF16F012000201A26BA46BB3
:102CA000A56BA66BA76BA86BA96BAA6BB00EAB6FDD
:102CB000800EAC6F080EAD6F820EAE6F060EAF6F5A
:102CC0002E0EB06FB16B800EB26FB36B000E0501AC
:102CD0006E6F000E6F6F000E706F8DEC18F0000EAF
:102CE00005016E6F000E6F6F000E706F7BEC18F0B9
:102CF000000E05016E6F000E6F6F000E706F69ECB5
:102D000018F03F6A000E3E6E120081C584F598EF00
:102D100016F07FC579F580C57AF5840E05017B6FC5
:102D2000050E7C6F82C57DF583C57EF5D0EC15F070
:102D300084C5F6F4260EF76E000EF86E0800F55006
:102D40000009D8A4A6EF16F0A8EF16F089EF16F048
:102D50000501806B000E7F6F120062C523F5BFEF87
:102D600016F060C51DF561C51EF5230E1F6E050E1C
:102D7000206E63C521F564C522F50FEC16F023C55E
:102D8000F6F4260EF76E000EF86E0800F5500009F6
:102D9000D8A4CDEF16F0CFEF16F0B1EF16F0050185
:102DA000616B000E606F1200FAC410F5FBC411F5E0
:102DB00041500301196F40C518F32E502F103010E9
:102DC000D8B4E5EF16F0E7EF16F0F4EF16F002D8FE
:102DD000F4EF16F00500FA6E2E50FD6E2F50FE6EC9
:102DE0003050FF6EFA501200B19E11C5FBF410C5B1
:102DF000FAF41100020EF66E340EF76E000EF86E45
:102E00000900F5C44CF50900F5C44DF501EE88F153
:102E1000200EEE6AE806FDE101EE25F11E0EEE6AD7
:102E2000E806FDE10401080E5D6F000E5E6F000E06
:102E30005F6F000102EF19F0D8C467F5FAC468F5B6
:102E4000FBC469F5F6C46AF5F7C46BF5F8C46CF514
:102E5000F5C46DF53BEC17F06DC5F5F46CC5F8F4F1
:102E60006BC5F7F46AC5F6F469C5FBF468C5FAF4F6
:102E700067C5D8F41100040107A941EF17F043EF2B
:102E800017F045EF17F0E1EC17F0040107AB4BEF3B
:102E900017F04DEF17F04FEF17F0C7EC17F00401E4
:102EA00007AD55EF17F057EF17F059EF17F0ADECEE
:102EB00017F012004C50F4EC14F04C2A4C50800ADD
:102EC000760FD8A066EF17F068EF17F073EF17F0E2
:102ED000000E0D6E000E0E6E000E0F6EEEEC19F071
:102EE000BF8A76EF17F04C5041EC15F01200D7ACCA
:102EF0007CEF17F043EF18F005016E6B0201B0ABE9
:102F000084EF17F086EF17F090EF17F0ABAB8BEF75
:102F100017F08DEF17F090EF17F0010E05016E6FAF
:102F200005016E511200480E0301196FE50E186F6E
:102F30007B0E1B6F195105016E6F03011851406E16
:102F40006EC541F50C0E2E6E340E2F6E000E306ED7
:102F5000B19EA18E900E1A6F12004350441045107E
:102F6000D8B4B5EF17F0B7EF17F0C4EF17F002D8E9
:102F7000C4EF17F00500FA6E4350FD6E4450FE6E2C
:102F80004550FF6EFA5012000401079D1200465092
:102F900047104810D8B4CFEF17F0D1EF17F0DEEF9D
:102FA00017F002D8DEEF17F00500FA6E4650FD6EFE
:102FB0004750FE6E4850FF6EFA5012000401079B06
:102FC000120049504A104B10D8B4E9EF17F0EBEF5C
:102FD00017F0F8EF17F002D8F8EF17F00500FA6EC7
:102FE0004950FD6E4A50FE6E4B50FF6EFA50120073
:102FF000040107991200375038103910D8B403EF84
:1030000018F005EF18F012EF18F002D812EF18F0D0
:103010000500FA6E3750FD6E3850FE6E3950FF6E67
:10302000FA5012001200345035103610D8B41BEF8D
:1030300018F01DEF18F02AEF18F002D82AEF18F058
:103040000500FA6E3450FD6E3550FE6E3650FF6E40
:10305000FA5012001200315032103310D8B433EF4E
:1030600018F035EF18F042EF18F002D842EF18F0E0
:103070000500FA6E3150FD6E3250FE6E3350FF6E19
:10308000FA5012001200126A0201B0AB4AEF18F0B7
:103090004CEF18F055EF18F0ABAB51EF18F053EFC1
:1030A00018F055EF18F0010E126E12501200860E35
:1030B0000501866F050E876F000E7F6F000E806F13
:1030C00085C581F5860E826F050E836F85EC16F03F
:1030D000120005016E516F117011D8B472EF18F023
:1030E00074EF18F07AEF18F06EC525F56FC526F568
:1030F00070C527F5120005016E516F117011D8B41B
:1031000084EF18F086EF18F08CEF18F06EC528F5F4
:103110006FC529F570C52AF5120005016E516F11B2
:103120007011D8B496EF18F098EF18F09EEF18F0E1
:103130006EC52BF56FC52CF570C52DF51200250E4B
:103140000501656F050E666F000E606F000E616F02
:1031500024C562F5650E636F050E646FADEC16F065
:103160001200010E4D6EB80E05016E6F320E6F6FBC
:10317000000E706FD2EC19F08A0E0501856F57ECC6
:1031800018F0120005016F6F77EC17F00009D8B442
:10319000CCEF18F0CEEF18F0C4EF18F06FC56EF555
:1031A000A7EC19F012004D6A000E05016E6F000EBB
:1031B0006F6F000E706FD2EC19F0B80E0501856FBD
:1031C00057EC18F01200136E43EC18F00009D8B455
:1031D000ECEF18F0EEEF18F0E4EF18F013C512F56D
:1031E000FEEC19F01200010E4D6EB80E126E320E8A
:1031F000136E000E146EE0EC19F08A0E246E9FEC34
:1032000018F0120096EC19F044EC19F0D68ED68C1A
:10321000A1EC14F02CEC19F00CEF19F081EF00F098
:103220004D6A000E126E000E136E000E146EE0EC6E
:1032300019F0B80E246E9FEC18F01200066E0650BE
:10324000D8B425EF19F027EF19F02AEF19F0C1844F
:103250002BEF19F0C194120093EC17F0B40E050196
:103260006E6F2E0E6F6F000E706F38EC19F012003B
:10327000D7AE3DEF19F0EEEF19F06EC52EF56FC524
:103280002FF570C530F51200C190C194C090BF9A5F
:10329000C196C19AC198C192BF96C19CC19E1200AD
:1032A000FAC404F5FBC405F5AF90FBEC17F005C5B7
:1032B000FBF404C5FAF41100010E1EEC19F0E80E3F
:1032C000066E320E076E000E086EE7EC19F0120063
:1032D000FAC409F5FBC40AF5B49013EC18F00AC55A
:1032E000FBF409C5FAF41100000E1EEC19F0000EF3
:1032F000066E000E076E000E086EE7EC19F0120065
:10330000FAC40BF5FBC40CF5B8902BEC18F00CC507
:10331000FBF40BC5FAF41100600E0001AD6FAF6B4A
:10332000B36B080EB16FB06BAC6B12008CEC19F084
:1033300068EC13F04DEC16F08BEC15F01200020E59
:103340004D6EA10E0501856F57EC18F01200D7AC39
:10335000ACEF19F0FEEF19F06EC5A3F212006EC5C6
:1033600043F56FC544F570C545F512006EC546F5C9
:103370006FC547F570C548F512006EC549F56FC5B4
:103380004AF570C54BF512006EC531F56FC532F5C3
:1033900070C533F512006EC534F56FC535F570C5CF
:1033A00036F512006EC537F56FC538F570C539F5BD
:1033B0001200020E4D6EA10E246E9FEC18F012004A
:1033C00012C537F513C538F514C539F5120006C511
:1033D00034F507C535F508C536F512000DC52EF5CF
:1033E0000EC52FF50FC530F51200F3EC18F01200E2
:1033F000D9EC19F0120010EC19F0120012C5A3F26A
:0E3400001200FF031100120012001200120051
:020000040030CA
:080000008FFFFFFF9FFFFFFFD0
:01000900FFF7
:00000001FF
